{
  "contractName": "PerTrillionLibrary",
  "abi": [
    {
      "inputs": [],
      "name": "TRILLION",
      "outputs": [
        {
          "internalType": "uint96",
          "name": "",
          "type": "uint96"
        }
      ],
      "stateMutability": "view",
      "type": "function"
    }
  ],
  "bytecode": "0x609e610024600b82828239805160001a607314601757fe5b30600052607381538281f3fe730000000000000000000000000000000000000000301460806040526004361060335760003560e01c80631be9db67146038575b600080fd5b603e605f565b604080516bffffffffffffffffffffffff9092168252519081900360200190f35b64e8d4a510008156fea2646970667358221220800539cd7e67dad60025b1efdacfba5d667ba5c813a61137a4215216b1a9516364736f6c63430007060033",
  "immutableReferences": {},
  "source": "// SPDX-License-Identifier: MIT\n\npragma solidity 0.7.6;\n\nimport '@openzeppelin/contracts-upgradeable/math/SafeMathUpgradeable.sol';\n\nlibrary PerTrillionLibrary {\n  using SafeMathUpgradeable for uint256;\n\n  uint96 public constant TRILLION = 1000000000000;\n\n  function perTrillion(uint256 value, uint96 ptValue)\n    internal\n    pure\n    returns (uint256)\n  {\n    return value.mul(ptValue).div(TRILLION);\n  }\n}\n",
  "sourcePath": "@rarible/exchange-v2/contracts/lib/PerTrillionLibrary.sol",
  "compiler": {
    "name": "solc",
    "version": "0.7.6+commit.7338295f.Emscripten.clang"
  },
  "schemaVersion": "3.4.3",
  "updatedAt": "2023-02-08T04:27:20.293Z",
  "devdoc": {
    "kind": "dev",
    "methods": {},
    "version": 1
  },
  "userdoc": {
    "kind": "user",
    "methods": {},
    "version": 1
  }
}